:100AE800505357442050524F54454354494F4E0099
:100AF8002020202020202053595354454D202020C9
:100B08002020202000454E54455220504153535731
:100B18004F52443A20200020414343455353204735
:100B280052414E5445442E2E2E0020202057454C2D
:100B3800434F4D45205445414D202020002020445E
:100B48004F4F525320434C4F53494E472E2E2E2081
:100B580020002020204143434553532044454E491B
:070B6800454421202020007C
:100800007F38120BF27F01120BF27F10120BF27F76
:100810000C120BF27F80120BF27A0A79E8120B6F3E
:100820007FC0120BF27A0A79F8120B6F120BD512F5
:100830000BD5120BD57F01120BF27BFF7A0B790DD2
:100840007D13120B737FC0120BF2C290209423749D
:100850000F2513F87631120BD5120BD5120BD512CA
:100860000BD5120BD5120BD5120BD57F2A120C000B
:100870000513209523740F2513F87632120BD51229
:100880000BD5120BD5120BD5120BD5120BD5120BA3
:10089000D57F2A120C000513209623740F2513F818
:1008A0007633120BD5120BD5120BD5120BD5120BBA
:1008B000D5120BD5120BD57F2A120C000513C29747
:1008C000D290209423740F2513F87634120BD5128E
:1008D0000BD5120BD5120BD5120BD5120BD5120B53
:1008E000D57F2A120C000513209523740F2513F8C9
:1008F0007635120BD5120BD5120BD5120BD5120B68
:10090000D5120BD5120BD57F2A120C000513209699
:1009100023740F2513F87636120BD5120BD5120B54
:10092000D5120BD5120BD5120BD5120BD57F2A126F
:100930000C000513C292D297209423740F2513F84C
:100940007637120BD5120BD5120BD5120BD5120B15
:10095000D5120BD5120BD57F2A120C00051320954A
:1009600023740F2513F87638120BD5120BD5120B02
:10097000D5120BD5120BD5120BD5120BD57F2A121F
:100980000C000513209623740F2513F87639120BEB
:10099000D5120BD5120BD5120BD5120BD5120BD5C8
:1009A000120BD57F2A120C000513C293D292209409
:1009B00023740F2513F8762A120BD5120BD5120BC0
:1009C000D5120BD5120BD5120BD5120BD57F2A12CF
:1009D0000C000513209523740F2513F87630120BA5
:1009E000D5120BD5120BD5120BD5120BD5120BD578
:1009F000120BD57F2A120C00051320960C120A0E3A
:0E0A0000120BD5120BD5120BD5D29302084A59
:100A0E00E50F64316003020AD7E510643560030216
:100A1E000AD7E51164316003020AD7E51264336028
:100A2E0003020AD77F01120BF27BFF7A0B791F7D2F
:100A3E0013120B737FC0120BF27BFF7A0B79327D90
:100A4E0014120B73750800750932E5091509AE0805
:100A5E00700215084E600DD2B3C2B4D2B5C2B61232
:100A6E000BD580E675080075093CE5091509AE0839
:100A7E00700215084E6005120BCD80EE7F01120B31
:100A8E00F27BFF7A0B79457D14120B737508007596
:100A9E000932E5091509AE08700215084E600DC23F
:100AAE00B3D2B4C2B5D2B6120BD580E67F01120B0B
:100ABE00F2750800750928E5091509AE08700215CA
:100ACE00084E6015120BCD80EE7F01120BF27BFFEC
:090ADE007A0B795A7D14120B7396
:010AE70022EC
:0E0BF2008FA0C2B0C2B1D2B2120BD5C2B222D5
:0E0C00008FA0D2B0C2B1D2B2120BD5C2B222B6
:040B6F007BFF7D1477
:080B73008B0A8A0B890C8D0D21
:100B7B00E4F50EE50EC3950D501AAB0AAA0BA90CA2
:100B8B00850E82758300120BA0FF120C00120BD581
:040B9B00050E80DFE4
:010B9F002233
:080BCD00C2B3C2B4C2B5C2B646
:100BD500E4FFFE0FBF00010EBE1FF8BF40F5E4FFA6
:0C0BE500FE0FBF00010EEF64644E70F5BF
:010BF10022E1
:03000000020C0EE1
:0C0C0E00787FE4F6D8FD75811302080021
:100BA000BB010CE58229F582E5833AF583E022500A
:100BB00006E92582F8E622BBFE06E92582F8E22254
:0D0BC000E58229F582E5833AF583E493226E
:00000001FF
